{
  "_format": "hh-sol-artifact-1",
  "contractName": "tweets",
  "sourceName": "contracts/tweets.sol",
  "abi": [
    {
      "inputs": [],
      "stateMutability": "nonpayable",
      "type": "constructor"
    },
    {
      "anonymous": false,
      "inputs": [
        {
          "indexed": false,
          "internalType": "address",
          "name": "tweeter",
          "type": "address"
        },
        {
          "indexed": false,
          "internalType": "uint256",
          "name": "id",
          "type": "uint256"
        },
        {
          "indexed": false,
          "internalType": "string",
          "name": "tweetTxt",
          "type": "string"
        },
        {
          "indexed": false,
          "internalType": "string",
          "name": "tweetImg",
          "type": "string"
        }
      ],
      "name": "tweetCreated",
      "type": "event"
    },
    {
      "inputs": [
        {
          "internalType": "string",
          "name": "tweetTxt",
          "type": "string"
        },
        {
          "internalType": "string",
          "name": "tweetImg",
          "type": "string"
        }
      ],
      "name": "addTweet",
      "outputs": [],
      "stateMutability": "payable",
      "type": "function"
    },
    {
      "inputs": [
        {
          "internalType": "uint256",
          "name": "id",
          "type": "uint256"
        }
      ],
      "name": "getTweet",
      "outputs": [
        {
          "internalType": "string",
          "name": "",
          "type": "string"
        },
        {
          "internalType": "string",
          "name": "",
          "type": "string"
        },
        {
          "internalType": "address",
          "name": "",
          "type": "address"
        }
      ],
      "stateMutability": "view",
      "type": "function"
    },
    {
      "inputs": [],
      "name": "owner",
      "outputs": [
        {
          "internalType": "address",
          "name": "",
          "type": "address"
        }
      ],
      "stateMutability": "view",
      "type": "function"
    }
  ],
  "bytecode": "0x608060405234801561001057600080fd5b506000600181905550336000806101000a81548173ffffffffffffffffffffffffffffffffffffffff021916908373ffffffffffffffffffffffffffffffffffffffff160217905550610c48806100686000396000f3fe6080604052600436106100345760003560e01c80637e75b408146100395780638da5cb5b14610055578063c3ad5ecb14610080575b600080fd5b610053600480360381019061004e9190610588565b6100bf565b005b34801561006157600080fd5b5061006a610257565b6040516100779190610641565b60405180910390f35b34801561008c57600080fd5b506100a760048036038101906100a29190610692565b61027b565b6040516100b69392919061073e565b60405180910390f35b670de0b6b3a76400003414610109576040517f08c379a0000000000000000000000000000000000000000000000000000000008152600401610100906107cf565b60405180910390fd5b600060026000600154815260200190815260200160002090508281600201908161013391906109fb565b508181600301908161014591906109fb565b50338160000160006101000a81548173ffffffffffffffffffffffffffffffffffffffff021916908373ffffffffffffffffffffffffffffffffffffffff16021790555060015481600101819055507f7833935c4a0db647706761b6cf59177b216d1d35e41408f8f7d54ce993064a353360015485856040516101cb9493929190610adc565b60405180910390a1600160008154809291906101e690610b5e565b919050555060008054906101000a900473ffffffffffffffffffffffffffffffffffffffff1673ffffffffffffffffffffffffffffffffffffffff166108fc349081150290604051600060405180830381858888f19350505050158015610251573d6000803e3d6000fd5b50505050565b60008054906101000a900473ffffffffffffffffffffffffffffffffffffffff1681565b606080600060015484106102c4576040517f08c379a00000000000000000000000000000000000000000000000000000000081526004016102bb90610bf2565b60405180910390fd5b600060026000868152602001908152602001600020905080600201816003018260000160009054906101000a900473ffffffffffffffffffffffffffffffffffffffff168280546103149061081e565b80601f01602080910402602001604051908101604052809291908181526020018280546103409061081e565b801561038d5780601f106103625761010080835404028352916020019161038d565b820191906000526020600020905b81548152906001019060200180831161037057829003601f168201915b505050505092508180546103a09061081e565b80601f01602080910402602001604051908101604052809291908181526020018280546103cc9061081e565b80156104195780601f106103ee57610100808354040283529160200191610419565b820191906000526020600020905b8154815290600101906020018083116103fc57829003601f168201915b50505050509150935093509350509193909250565b6000604051905090565b600080fd5b600080fd5b600080fd5b600080fd5b6000601f19601f8301169050919050565b7f4e487b7100000000000000000000000000000000000000000000000000000000600052604160045260246000fd5b6104958261044c565b810181811067ffffffffffffffff821117156104b4576104b361045d565b5b80604052505050565b60006104c761042e565b90506104d3828261048c565b919050565b600067ffffffffffffffff8211156104f3576104f261045d565b5b6104fc8261044c565b9050602081019050919050565b82818337600083830152505050565b600061052b610526846104d8565b6104bd565b90508281526020810184848401111561054757610546610447565b5b610552848285610509565b509392505050565b600082601f83011261056f5761056e610442565b5b813561057f848260208601610518565b91505092915050565b6000806040838503121561059f5761059e610438565b5b600083013567ffffffffffffffff8111156105bd576105bc61043d565b5b6105c98582860161055a565b925050602083013567ffffffffffffffff8111156105ea576105e961043d565b5b6105f68582860161055a565b9150509250929050565b600073ffffffffffffffffffffffffffffffffffffffff82169050919050565b600061062b82610600565b9050919050565b61063b81610620565b82525050565b60006020820190506106566000830184610632565b92915050565b6000819050919050565b61066f8161065c565b811461067a57600080fd5b50565b60008135905061068c81610666565b92915050565b6000602082840312156106a8576106a7610438565b5b60006106b68482850161067d565b91505092915050565b600081519050919050565b600082825260208201905092915050565b60005b838110156106f95780820151818401526020810190506106de565b60008484015250505050565b6000610710826106bf565b61071a81856106ca565b935061072a8185602086016106db565b6107338161044c565b840191505092915050565b600060608201905081810360008301526107588186610705565b9050818103602083015261076c8185610705565b905061077b6040830184610632565b949350505050565b7f506c65617365207375626d69742031204d617469630000000000000000000000600082015250565b60006107b96015836106ca565b91506107c482610783565b602082019050919050565b600060208201905081810360008301526107e8816107ac565b9050919050565b7f4e487b7100000000000000000000000000000000000000000000000000000000600052602260045260246000fd5b6000600282049050600182168061083657607f821691505b602082108103610849576108486107ef565b5b50919050565b60008190508160005260206000209050919050565b60006020601f8301049050919050565b600082821b905092915050565b6000600883026108b17fffffffffffffffffffffffffffffffffffffffffffffffffffffffffffffffff82610874565b6108bb8683610874565b95508019841693508086168417925050509392505050565b6000819050919050565b60006108f86108f36108ee8461065c565b6108d3565b61065c565b9050919050565b6000819050919050565b610912836108dd565b61092661091e826108ff565b848454610881565b825550505050565b600090565b61093b61092e565b610946818484610909565b505050565b5b8181101561096a5761095f600082610933565b60018101905061094c565b5050565b601f8211156109af576109808161084f565b61098984610864565b81016020851015610998578190505b6109ac6109a485610864565b83018261094b565b50505b505050565b600082821c905092915050565b60006109d2600019846008026109b4565b1980831691505092915050565b60006109eb83836109c1565b9150826002028217905092915050565b610a04826106bf565b67ffffffffffffffff811115610a1d57610a1c61045d565b5b610a27825461081e565b610a3282828561096e565b600060209050601f831160018114610a655760008415610a53578287015190505b610a5d85826109df565b865550610ac5565b601f198416610a738661084f565b60005b82811015610a9b57848901518255600182019150602085019450602081019050610a76565b86831015610ab85784890151610ab4601f8916826109c1565b8355505b6001600288020188555050505b505050505050565b610ad68161065c565b82525050565b6000608082019050610af16000830187610632565b610afe6020830186610acd565b8181036040830152610b108185610705565b90508181036060830152610b248184610705565b905095945050505050565b7f4e487b7100000000000000000000000000000000000000000000000000000000600052601160045260246000fd5b6000610b698261065c565b91507fffffffffffffffffffffffffffffffffffffffffffffffffffffffffffffffff8203610b9b57610b9a610b2f565b5b600182019050919050565b7f4e6f207375636820547765657400000000000000000000000000000000000000600082015250565b6000610bdc600d836106ca565b9150610be782610ba6565b602082019050919050565b60006020820190508181036000830152610c0b81610bcf565b905091905056fea26469706673582212202216933b90fd4d8aeae2b9234c814280c74b233876f75949ce6f6a2a9950fd7b64736f6c63430008110033",
  "linkReferences": {},
  "deployedLinkReferences": {}
}